:100000000C94B7020C94D4020C94D4020C94D40235
:100010000C94D4020C94D4020C94D4020C94D40208
:100020000C94D4020C94D4020C945B2B0C942F2CC3
:100030000C94EA250C94D4020C94D4020C94D402AF
:100040000C94D4020C94D4020C94D4020C94D402D8
:100050000C94D4020C9471260C94D4020C94D40207
:100060000C94D4020C94D4020C94D4020C94D402B8
:100070000C94D4020C94D4020C94D4020C94D402A8
:100080000C94D4020C94D4020C94D4020C94D40298
:100090000C94D4020C94D4020C94D4020C94D40288
:1000A0000C94D4020C94D4020C94D402A900AA009B
:1000B0001C000400A900AA00A900AA000400050071
:1000C00006000700080004000500060007000800FD
:1000D00004000500060007000800040005000600F3
:1000E000070008001E0F0500047F3F1F64321464E0
:1000F0003214783C1E1E140A052223252628292A9C
:100100002C2D2F3032333536383A3B3D3E4042437A
:100110004547494A4C4E5051535557595A5C5E60B9
:1001200062646668696B6D6F71737577797B7D7FCB
:1001300081838587898A8C8E90929496989A9C9ECA
:100140009FA1A3A5A7A8AAACAEAFB1B3B4B6B8B9E6
:10015000BBBCBEBFC1C2C3C5C6C7C9CACBCCCDCE4E
:10016000D0D1D2D2D3D4D5D6D7D7D8D9D9DADADB31
:10017000DBDBDCDCDCDCDCDDDDDDDDDCDCDCDCDCBD
:10018000DBDBDBDADAD9D9D8D7D7D6D5D4D3D2D2FC
:10019000D1D0CECDCCCBCAC9C7C6C5C3C2C1BFBEE4
:1001A000BCBBB9B8B6B4B3B1AFAEACAAA8A7A5A34F
:1001B000A19F9E9C9A98969492908E8C8A8987850E
:1001C00083817F7D7B79777573716F6D6B696866ED
:1001D0006462605E5C5A5957555351504E4C4A49BF
:1001E00047454342403E3D3B3A3836353332302F67
:1001F0002D2C2A292826252322FFAA7F55400001DD
:1002000001010101010101010202020202020202D6
:1002100002030303030303030304040404040404A8
:10022000050505050506060606060707070707086C
:10023000080808090909090A0A0A0B0B0B0C0C0C1F
:100240000D0D0D0E0E0E0F0F0F10101111111212B9
:1002500013131414151516161717181819191A1A36
:100260001B1B1C1D1D1E1E1F202021222223242497
:10027000252626272829292A2B2C2D2D2E2F3031D3
:100280003232333435363738393A3B3C3D3E3F40E5
:100290004142434445464748494A4C4D4E4F5051D0
:1002A0005354555658595A5B5D5E5F61626465668A
:1002B00068696B6C6D6F7072737577787A7B7D7E11
:1002C0008082838587888A8C8E8F91939596989A61
:1002D0009C9EA0A2A3A5A7A9ABADAFB1B3B5B7BA79
:1002E000BCBEC0C2C4C6C9CBCDCFD1D4D6D8DBDD4D
:1002F000DFE2E4E7E9EBEEF0F3F5F8FAFDFF0000EA
:100300000000000000002A2B280000000000000070
:1003100000000000000000000029000000002C1E6A
:100320003420212224342627252E362D3738271E27
:100330001F202122232425263333362E37381F044D
:1003400005060708090A0B0C0D0E0F1011121314E5
:1003500015161718191A1B1C1D2F3130232D3504A3
:1003600005060708090A0B0C0D0E0F1011121314C5
:1003700015161718191A1B1C1D2F3130354C00008B
:10038000000000000000000000000000000000006D
:10039000000000000000000000000000000000005D
:1003A00000007E0F00D4FFFFFFC700000078160397
:1003B00063006100730073006500740074006500E1
:1003C00034003200000018036D006F006E006B00F7
:1003D00073006F006600660075006E006B00000021
:1003E0000403090409025B00030100A0FA090400E8
:1003F000000103010100092111010001224400074D
:10040000058103080001090401000203000000093E
:1004100021110100012222000705820320000107AB
:100420000503032000010904020001030000000984
:10043000211101000122B6000705840320000112EA
:10044000010002000000084D41040001000102000B
:10045000010660FF0961A1010962150026FF0095F0
:1004600020750881020963150026FF009520750894
:100470009102C005010902A10185020901A100053F
:100480000919012908150025019508750181020542
:1004900001093009311581257F950275088106090A
:1004A000381581257F950175088106050C0A3802EB
:1004B0001581257F950175088106C0C00501098059
:1004C000A101850319012AB700150126B70095017E
:1004D00075108100C0050C0901A101850419012ACC
:1004E000A002150126A002950175108100C005012A
:1004F0000906A1018506050719E029E71500250170
:100500009508750181020507190029EF15002501DD
:1005100095F07501810205081901290595057501F8
:100520009102950175039101C005010906A101051C
:100530000719E029E7150025019508750181029545
:1005400001750881010507190029FF150026FF0024
:100550009506750881000508190129051500250172
:10056000950575019102950175039101C000112453
:100570001FBECFEFDAE0DEBFCDBF11E0A0E0B1E0FB
:10058000E0E7F0E602C005900D92AE3EB107D9F764
:1005900023E0AEEEB1E001C01D92A132B207E1F757
:1005A0000E94BC110C94CD2F0C940000843090F468
:1005B000611110C0453070F4E42FF0E095E0899FA0
:1005C000E00DF11D1124EE0FFF1FE454FF4F859144
:1005D0009491089581E090E00895843088F4611149
:1005E0000FC090E0880F991FE1E0E427E80FF92F92
:1005F000F11DEE0FFF1FE455FF4F85919491089573
:1006000081E090E0089581E008950E940303089539
:1006100081E008950E94030308950E940A0308954B
:1006200008950E9410030895A6E0B0E0EAE1F3E027
:100630000C94792E49835A839E833091F5018981E8
:100640009A8131111AC03E81332399F0222389F017
:100650000E948F08182F682F89819A810E9465084F
:1006600069817A81812F0E949A0F2696E3E00C948B
:10067000952E0E947A08182FF3CF0E948F08698167
:100680007A81F1CFFC01262F4081518162817381F3
:10069000848195810E9414030895CF93DF93EC0128
:1006A00061E00E944203BE010E940503DF91CF91E9
:1006B0000895CF93DF93EC0160E00E944203BE01F6
:1006C0000E941103DF91CF91089508950E94610760
:1006D0000E9465032FEF84E39CE02150804090400E
:1006E000E1F700C0000008950E9466030E9495266D
:1006F00008950E9466030E94A62608950F931F93F3
:10070000CF93DF938C0161E00E944203EC01B801BA
:100710000E94111D811106C080E0DF91CF911F91D1
:100720000F910895B801CE010E940D038823A1F313
:10073000B801CE010E94AA23882371F3B801CE012B
:100740000E94971E882341F3B801CE010E941C230A
:10075000882311F3B801CE010E940B1C8823E1F21B
:10076000B801CE010E94EE238823B1F2F801858101
:10077000882361F0C330FCE7DF07E9F058F4C115C6
:10078000ECE7DE07A9F0C130DC47B9F0C8010E94F0
:100790000803C3CFCB358CE7D807A9F0CC35ECE7FD
:1007A000DE0771F0CA35DC4789F70E94E70CEECF0F
:1007B0000E947403B1CF0E94EF0C0E947903ACCF6A
:1007C0000E94DD0CE3CF0E94EB0CE0CF0E94CC2511
:1007D0000E9411040E944F1A08950E9415040E945D
:1007E000481B0E94D1250895089581E00895089539
:1007F000CF93DF93D82F0E94F503C82F882319F0D9
:100800008D2F0E94F7038C2FDF91CF9108950895CB
:10081000CF93C82F0E94F4038C2F0E94F803CF912E
:10082000089580E00E94080408950E943C240E94DC
:1008300008040895CF930E943C24C82F8091F001B2
:100840008C1779F0C093F0010E9456266093F10155
:100850007093F2018093F3019093F4018C2F0E9426
:100860000804CF910895ADE0B0E0E9E3F4E00C9422
:100870007A2E488759876A877B878C879D87911155
:100880000E94150C1F8286E0FE013896DE0111964B
:1008900001900D928A95E1F78D8181110DC029811A
:1008A0003A814B815C816D817E818F810E94480BF2
:1008B0002D96E2E00C94962ECE0101960E944D03F7
:1008C0008111EDCFF5CFFC012481213021F480810D
:1008D00091810E94BC080895662329F00E9453125A
:1008E0000E94261308950E94AD12FACFCF93C82F0D
:1008F0008823B9F08CEF8C0F813AA8F46C2F80918B
:100900000401909105010E94CF24882329F08C2FA7
:100910000E94D50B0E944E0C8C2F0E94CD0B0E9482
:100920004E0CCF91089580E28C0F883048F4C77048
:1009300081E001C0880FCA95EAF70E94F80BEFCF5B
:10094000EBE5EC0FE33040F4F0E0ED59FE4F808131
:1009500090E00E947124E5CFE8E5EC0FEB3150F414
:10096000F0E0EE0FFF1FE35DFE4F808191810E945A
:100970009624D7CF83E38C0F833198F661E08C2FD8
:100980000E946C04CECF882381F19CEF980F913A9E
:1009900028F40E94D50B0E944E0C089590E2980F07
:1009A000983050F4877091E001C0990F8A95EAF76A
:1009B000892F0E94FE0BEFCF9BE5980F933028F410
:1009C00090E080E00E947124089598E5980F9B3193
:1009D00028F490E080E00E949624089593E3980F15
:1009E000933118F460E00E946C0408951F93CF9334
:1009F000DF93182FEB010E947604209739F4812FA2
:100A00000E94C304DF91CF911F9108958FE99FE069
:100A10000197F1F700C000002197EFCF70E060E090
:100A2000893311F460E570E00E94F604089588238C
:100A300021F00E94F80B0E944E0C0895882321F0AB
:100A40000E94FE0B0E944E0C0895B0E0A0E0EBE285
:100A5000F5E00C94732E6C01D62FC72FFC01158185
:100A6000068102950F700E94EE0BE82E8823E9F0B4
:100A7000E12E1123D1F08C2F807F803451F080E261
:100A80008D0F8830F8F0011104C08C2F807E8032E9
:100A9000C9F08091F90282FF15C082E00E94B10C7A
:100AA0000E94EE0B91E0E82EE926BC2EB2949FE066
:100AB000B922FBE0FB15B8F1EB2DF0E0E153F04D6E
:100AC0000C942C2EE12CF1CF0C2F0F70C07F11F065
:100AD0000295007F112399F0002359F080E28D0FD9
:100AE000883010F0D11107C0802F0E94F80B0E94AF
:100AF0004E0C8D2F5AC0802F0E94080CF8CF8D2FDE
:100B00000E94C304002379F080E28D0F883010F03A
:100B1000D11104C0802F0E94FE0B03C0802F0E94C1
:100B20000E0C0E944E0CEB2DE850FF0B349720F476
:100B30000E943C240E940804EE2089F00E94EA0BE7
:100B400080FD0DC0F60115820E94E40B0E94D907BA
:100B5000C6010E9428070E94E40B0E94E507CDB75A
:100B6000DEB7E9E00C948F2E2C2F2F70F22EC07F71
:100B7000C03219F0F29480EFF822DD2341F0D13039
:100B8000D1F1112309F444C00023F1F0B2CF8091D8
:100B9000F90282FD15C0112359F0FF2029F08F2D95
:100BA0000E94F80B0E944E0C80E00E947604BBCF9E
:100BB00080E00E94C304FF2009F4B5CF8F2DABCF96
:100BC000112369F0011104C08F2D0E941705ABCFCE
:100BD000013009F0A8CF8F2D0E942C0CA4CF011159
:100BE000A2CF8F2D0E941E058F2D0E94380C8F2DB5
:100BF0000E941C0C98CF112321F0063008F093CFEF
:100C0000E3CF053008F08FCF8F2D0E941E058BCFCC
:100C10000023D1F3D93349F43FEF87EE93E031500D
:100C200080409040E1F700C000008D2F0E94C30477
:100C30007ACF8C2F86958695837069F0813009F084
:100C400072CF8D2F9C2F9370111102C080E090E025
:100C50000E94962468CF8D2F9C2F9370111102C093
:100C600080E090E00E9471245ECF612F8D2F0E9462
:100C70006C0459CF8C2F837079F5111154CF4D2FFF
:100C8000429546954770440F440F8D2F8F70042E68
:100C900001C0880F0A94EAF72D2F2071D4FF07C0F6
:100CA0002FE030E001C0220F4A95EAF72095C69563
:100CB000C695C370822BC23049F058F4C13019F088
:100CC0000E94B50730CF0E94AF072DCF0E94BB070F
:100CD0002ACF0E94AC0727CF8695112311F08C2FC5
:100CE0008170882309F41FCF4D2F42954695477098
:100CF000440F440F8D2F8F70042E01C0880F0A946B
:100D0000EAF72D2F2071D4FF07C02FE030E001C09B
:100D1000220F4A95EAF72095C695C695C370822B97
:100D2000C23049F058F4C13019F00E940408FBCEDB
:100D30000E94FE07F8CE0E940A08F5CE0E94C7075F
:100D4000F2CECF70112329F08C2F0E94D9078D2F5E
:100D50003CCF8D2F0E941E058C2F0E94E507E3CE0D
:100D6000D23F41F160F4D03FB9F0D13F81F011237F
:100D700009F446C00111BDCE8C2F8F711FC0D33F27
:100D800001F1D43FA1F78091F90282FD24C08C2F9C
:100D90008F71112311F312C0112341F0053008F0B7
:100DA000C2CE8C2F8F710E94F207BDCE063008F0A4
:100DB000BACEF7CF8C2F8F711111CFCF0E94D907E8
:100DC000B2CE112329F08C2F8F710E94D007ABCEA9
:100DD0000E94CC07A8CE112349F0CF718C2F0E941E
:100DE000D90763E08C2F0E94930C9DCE81E00E9476
:100DF000B10C023008F497CE82E00E94B10C93CE81
:100E0000002359F0D93309F010CFEFEFF7EE23E0CC
:100E1000E150F0402040E1F706CF8C2F8F719DCF3D
:100E20000F931F93CF93DF93EC01688179818D81BC
:100E30000E94C7088C010E9410080E94AB07B801ED
:100E4000CE010E942505DF91CF911F910F9108954A
:100E5000CF93DF93EC018C81882399F0CE010E941F
:100E60007E03811111C00E94EE0B882351F08D8109
:100E7000882339F08091F90282FF03C082E00E944A
:100E8000B10CDF91CF910895CE010E941007CE01E1
:100E90000E945903F6CF90E080E00E94712490E018
:100EA00080E00E9496240E94150C0E944E0C0E9425
:100EB00042130E94261308950E94DD0B0E944B07E7
:100EC00008950E94050C0E945C07089592959F70FA
:100ED000963091F058F4925F9F70923058F4803FB2
:100EE00019F030F4883E30F481E008959A5FF4CF31
:100EF000843FD1F380E00895883EB0F3813FD1F77D
:100F0000F3CFFC012481222339F0808191810E945A
:100F1000BC080E946607089580E00895A6E0B0E04E
:100F2000E4E9F7E00C947A2E2696E2E00C94962EF3
:100F3000A7E0B0E0EEE9F7E00C947A2E2796E2E025
:100F40000C94962E08950E94A20708950E94A3076C
:100F50008093FD01089508950E94A6070895909139
:100F6000FD01892B0E94A60708959091FD01892318
:100F70000E94A60708959091FD0189270E94A60767
:100F800008950E94A20708950E94C10708950E9433
:100F9000C4078093FC01089580E00E94C70708956C
:100FA00091E001C0990F8A95EAF7892F0E94C7073F
:100FB000089521E030E001C0220F8A95EAF7809180
:100FC000FC01822B0E94C707089521E030E001C098
:100FD000220F8A95EAF720958091FC0182230E94D6
:100FE000C707089521E030E001C0220F8A95EAF793
:100FF0008091FC0182270E94C70708959091FC010F
:10100000892B0E94C70708959091FC0189230E94B3
:10101000C70708959091FC0189270E94C70708958A
:101020000895262F277091E001C0990F2A95EAF7BD
:1010300023E0769567952A95E1F7FB01EE0FFF1FF8
:10104000E60FF71FE40FF51F50E040E0682F70E057
:101050008191DF0111979B01042E02C036952795DF
:101060000A94E2F7217021952827292328272C9319
:101070004F5F5F4F4330510559F70895A82FA77070
:1010800023E0969587952A95E1F7FC01EE0FFF1F67
:10109000E80FF91FE60FF71F50E040E080E02191D4
:1010A00030E00A2E02C0369527950A94E2F72170A7
:1010B0003327042E01C0220F0A94EAF7822B4F5FD8
:1010C0005F4F4330510559F70895282F862F91110E
:1010D00007C0622F70E049EF51E0253040F00895DD
:1010E0009C5F9230E0F7622F70E046EF51E00E9483
:1010F0001108F5CF282F892F911105C069EF71E0F4
:10110000253030F008958C5F823038F466EF71E05E
:10111000822F90E00E943E08089580E0F3CFCF92A6
:10112000DF92FF920F931F93CF93DF936C01009197
:10113000FC018091FD01082BC3E0D0E010E0FC2E03
:10114000C8010C2E02C0959587950A94E2F780FDA0
:101150000CC02197A0F7F12C8F2DDF91CF911F911B
:101160000F91FF90DF90CF900895B6018C2F0E94D1
:10117000B30F019771F3F0CFCF93DF93EC010E948F
:101180008F08BE010E94B30FDF91CF9108951F9386
:10119000CF93DF93EB019091F501992339F0CB01C7
:1011A0000E94BC08DF91CF911F910895882369F0B8
:1011B000CB010E948F08182F682FCE010E9465086E
:1011C000BE01812F0E94B30FEDCFCB010E947A08A0
:1011D000182FF6CFE1E0F0E0DF0102C0AA0FBB1F3D
:1011E0006A95E2F7BD01DF0102C0AA0FBB1F4A9555
:1011F000E2F76A2B01C0EE0F2A95EAF7962F9823A3
:10120000961302C08E2B0895E0958E230895242F07
:10121000462F682F8091FC010E94EA080E94C707B0
:1012200008951F93CF93DF93C091FE0117E0809143
:10123000FF018C1304C0DF91CF911F910895D0E07E
:101240001C9FF0011D9FF00D1124E050FE4F2081E6
:101250003181428153816481758186810E94980722
:101260002196C770E4CF2091380230913902409125
:101270003A0250913B0260913C0270913D02809194
:101280003E020E9498070895CF93DF9380913E021B
:10129000807F09F04DC080913D02882309F448C049
:1012A000E091FE015091FF01C0913902D0913802C6
:1012B00060913A0270913B0247E05E17C9F18E2FB0
:1012C00090E0E49FF0011124E050FE4F248122239E
:1012D00091F1489FF001499FF00D1124DF01A050CA
:1012E000BE4F11962C9111972C1325C02C912D13C4
:1012F00022C015962C91159721111DC012962D9183
:101300003C91261B370B283C3105A8F480913E0206
:101310008F70806180933E02EA5FFD4F80818F7005
:101320008061808388E392E00E9428070E9411096F
:10133000DF91CF910895FC013196E770BECF482F21
:101340002091FE019091FF0157E0291302C080E037
:10135000089530E0529FF001539FF00D1124E050AA
:10136000FE4F8181681306C08081481303C08581C8
:101370008111EECF2F5F3F4F2770E7CFA4E1B0E0A0
:10138000E4ECF9E00C94702E8C0186E0F801DE01AB
:101390001F9601900D928A95E1F7F8018481E5800E
:1013A00098E3A92E92E0B92E90913C0291111FC0B2
:1013B0008823D1F0EE20A9F0C8010E948107F82E01
:1013C000882379F087E0F801D50101900D928A9584
:1013D000E1F7C5010E9463040E9444090E94330999
:1013E0005FC0C8010E942807FF24F39459C0C08041
:1013F000D18082809380F0903D0220913A0230911A
:101400003B02A401421B530BFF2009F4F9C0483CE6
:10141000510508F0A7C0882309F442C09091390211
:1014200080913E02282F207F09F05CC09D1116C0DC
:1014300090913802C91212C0E1104EC08F708061C5
:1014400080933E020E94330988E392E00E942807BD
:1014500080913E02F8018683F12C22C0E1103CC04D
:101460006D2D8C2D0E949F096D2D8C2D0E949F0942
:10147000E82E8111F1CFCF86D88A8F8598890E9476
:10148000BC08292F22952F70243078F49F702230C9
:10149000A8F09923B9F0F8019681907F99F4FE2C79
:1014A0008F2D6496ECE00C948C2E2A5F2F702230E6
:1014B00068F0C8010E942807EF2CF1CF992311F0A2
:1014C000882369F3805E883050F3F3CF803F38F390
:1014D000815F833070F7E3CF80913E02816080931B
:1014E0003E02BACF9D1113C090913802C9120FC0AD
:1014F000E1100DC08683C8010E94280787E0F8012B
:10150000A8E3B2E001900D928A95E1F767CFC80198
:101510000E948107882309F464CFEE2009F461CF8B
:1015200080913E02803288F0209138023091390259
:10153000398728879B868A8690913C029C871D86E6
:101540008E87CE0108960E94280787E0F801A8E35D
:10155000B2E001900D928A95E1F70E9444090E9441
:10156000330942CF90913E02292F207FA1F4682DAC
:101570009A8A898AA6017A899E2D0E948E0788E31D
:1015800092E00E94280787E0F50111928A95E9F719
:101590000E94330961CF882309F482CF80913902F8
:1015A0008D1110C080913802C8120CC0E1100AC021
:1015B0009683C8010E94280787E0F50111928A9559
:1015C000E9F76ECFC8010E948107882309F409CF8B
:1015D000EE2009F406CF80913E02803208F4B5CFA8
:1015E00020913802309139023A8329839C828B8280
:1015F00090913C029D831E828F83CE010196A3CFE2
:10160000483C5105B8F5882309F4EECEFE2CEE20B7
:1016100009F4E7CE809139028D111EC08091380205
:10162000C8121AC080913E0280FD0DC0982F907F95
:1016300051F08683903F09F45ECF982F907F905FA2
:101640008F70892B57CF87E0F801A8E3B2E00190B3
:101650000D928A95E1F724CFC8010E94810781117C
:1016600074CF80913E02816080933E02C8010E9447
:10167000280716CF682D9A8A898AA6017A899E2D15
:101680000E948E0787E0F50111928A95E9F7A6CEB0
:10169000AEE0B0E0EEE4FBE00C94792E28873987C9
:1016A0004A875B876C877D878E87CE0108960E946C
:1016B000BE098823B1F06C85662341F02885398501
:1016C0004A855B857D858E850E94980717E080910D
:1016D000FE019091FF0189133DC02E96E3E00C942A
:1016E000952E87E0FE013896DE01119601900D924D
:1016F0008A95E1F78C85882349F32091FF0130E03A
:10170000C9010196877099274091FE014817190673
:1017100099F097E0929FD001939FB00D1124A050B3
:10172000BE4FFE01319601900D929A95E1F780939C
:10173000FF010E941109CACF0E9461071092FF01A8
:101740001092FE0187E0E8E3F2E0DF011D928A9546
:10175000E9F7BCCF819FC001112480509E4F0E94A9
:10176000BE09882309F4B9CFE091FE011E9FF00164
:101770001124E050FE4F20813181428153816481E8
:10178000758186810E9498078091FE0190E0019604
:10179000877099278093FE019ACF682F809104016A
:1017A000909105010E944F250895682F80910401B2
:1017B000909105010E945D2508958091040190910A
:1017C00005010E946B25089580915F02869586959C
:1017D0008695089580915F028770089590915F02C9
:1017E000977081E009F480E0089580918302089564
:1017F00090918302892B8093830208958095909124
:10180000830298239093830208951092830208958F
:1018100090918202892B8093820208958095909105
:101820008202982390938202089510928202089572
:1018300008950E94180C089590916002292F282382
:1018400031F080958923809360020E94190C0895DD
:1018500008950E94280C089590916102292F282351
:10186000281729F0982B909361020E94290C089563
:1018700090916102292F282331F08095892380934C
:1018800061020E94290C089580916102882329F049
:101890001092610280E00E94290C0895CF93DF939B
:1018A000E0910401F0910501809183028083E09131
:1018B0000401F0910501808190918202892B80833F
:1018C00090916102992381F0E0910401F09105016A
:1018D0008081892B808380910401909105010E9471
:1018E000BB2481110E94440CC0910401D0910501D8
:1018F00040E250E06FE372E0CE010E94402F892B5E
:1019000059F080E2FE01AFE3B2E001900D928A95BA
:10191000E1F7CE010E944924DF91CF910895089507
:101920000E948F0C08959091F90292FF11C098E0E7
:10193000899F90011124622B60935F020E94D90756
:1019400080915F028695869586950E94900C0895F9
:101950000E94D907089510925F0280E00E94900CC7
:10196000089590915F028095892380935F02282FCC
:10197000277069F4891759F09091F90292FF07C016
:101980008695869586950E94E5070E94AB0C089582
:101990009091F90292FB222720F9281769F080FB29
:1019A00092F99093F9028091F8029091F9020E94C5
:1019B000110D82E00E94B10C08958091F90282FB22
:1019C000882780F991E089270E94C80C089581E05A
:1019D0000E94C80C089580E00E94C80C08956FEF23
:1019E0007FEF90E080E00E94982F089590E080E0E3
:1019F0000E94642F863E9E4F19F40E94A91C0895F0
:101A000080E0089582E090E00E94562F089583E0E0
:101A100090E00E94562F089584E090E00E94642F89
:101A20000895BC0184E090E00E94982F0895AB01D6
:101A3000BC018FE090E00E948C2F0895AB01BC01A7
:101A400083E190E00E948C2F089560E070E0CB016C
:101A50000E941E0D089560E070E0CB010E94170DFA
:101A60000E94250D0895A8E0B0E0E9E3FDE00C94A4
:101A70007A2E66EE7EEF90E080E00E94982F60E084
:101A800082E090E00E947A2F60E083E090E00E9484
:101A90007A2F1092FD0160E074E184E090E00E94F2
:101AA000982F60E086E090E00E947A2F6FEF87E049
:101AB00090E00E947A2F40E050E0BA0188E090E088
:101AC0000E948C2F60E084E290E00E947A2F60E018
:101AD00087E190E00E947A2F60E08CE090E00E9425
:101AE0007A2F60E08DE090E00E947A2F19821A82AE
:101AF0001B821C821D821E821F82188648E050E0D5
:101B000068E170E0CE0101960E946A2F40E050E04B
:101B1000BA0180E290E00E948C2F80E00E94C21CFB
:101B20000E94F11C0E942B0D2896E2E00C94962E48
:101B30000E94330D0895682F8EE090E00E947A2F66
:101B40000895A6E0B0E0E7EAFDE00C94782E0E944C
:101B50004A268C018091840290918502801791071A
:101B600081F019821A820E944A26682F49815A817F
:101B7000792F80E090E00E94330410938502009357
:101B800084022696E4E00C94942E0E9456266093DC
:101B90008F027093900280939102909392026093CF
:101BA0008B0270938C0280938D0290938E02089525
:101BB0000E94562660938F02709390028093910248
:101BC00090939202609387027093880280938902B7
:101BD00090938A020895089508950E94EB0D089548
:101BE00008950E94F00D089589EA90E10E94C911BC
:101BF0000E94EC0D0E94ED0D089581E008950E9471
:101C0000FD0D08950E94FD0D0895089508950E9408
:101C1000050E0E94060E08950E94C8100E94070437
:101C200008950E9441260E94011D0E943D200E94AD
:101C30003F110E940C0E0E94F21A0E94F10D0895AD
:101C4000A6E0B0E0E6E2FEE00C94742E0E94FF0DE8
:101C5000811111C00E94A10D0E94521B0E946020A0
:101C600081110E94D80D0E9464130E941A042696C6
:101C7000E8E00C94902E0E944B111091860280E0B7
:101C80000E94EB10181731F38091930281FD0E949E
:101C9000F1100E94020ED82E80E00E94EB10182F47
:101CA00080918602181729F1E12EE82600E0FF2432
:101CB000F394CC24C3948E2D8F21A9F0DD2099F0CC
:101CC00009831A820E944A269C838B83CD8291E0ED
:101CD000812F8F2109F490E049815A816B817C81A9
:101CE0008D810E9433040F5FFF0C053021F71093A4
:101CF00086020E94C50DB0CF1F93CF93DF930E9441
:101D0000B80FEC01C11580E5D807F0F5C11580E4E6
:101D1000D80708F09CC0C03ED10520F5CD3CD105C8
:101D200008F082C0C83AD10578F4C53AD10508F068
:101D300073C0C130D10519F1209709F1C430D10524
:101D4000F0F4D0E0C0E01BC0C33CD105D0F7C85AC6
:101D5000D0E0CC0FDD1FCA59DE4F0990D881C02DCD
:101D6000D4640DC0C11580E2D80708F0D1C0C115F8
:101D700081E0D80708F05AC0C83ED10510F7CE015F
:101D8000DF91CF911F910895C03682E5D80718F5ED
:101D9000C03482E5D80708F06BC0C03282E5D807AE
:101DA00008F05FC0C11582E5D80708F497C02C2F52
:101DB0002695269580E2289F900111248C2F837010
:101DC000C1E0D0E002C0CC0FDD1F8A95E2F7C22B44
:101DD000D32BDD68D4CFC03A82E5D80760F4C03891
:101DE00082E5D80708F459C0CF71D0E0DC2FCC27AA
:101DF000C46FD06AC4CFC03C82E5D80708F462C083
:101E0000C03E82E5D80708F09CCFDC2FCC27CC273A
:101E1000DF71C06FD06AB3CFC55AD0E0C456DE4F71
:101E2000C881D0E0D064ABCFD065A9CF8D2F0E9400
:101E30005A10182FCE0199270E94B80FC12FD0E059
:101E4000DC2FCC27CC27DF71C82BD92B98CFCE0124
:101E500099270E94B80FCC27DF70C82BD92BD06AE6
:101E60008ECFCF71D0E0DC2FCC27C16FD06A87CF67
:101E70002C2F26952695277080E2289F900111240B
:101E80008C2F8370C1E0D0E002C0CC0FDD1F8A959B
:101E9000E2F7C22BD32BDC6872CF2C2F2695269528
:101EA000277080E2289F900111248C2F8370C1E05D
:101EB000D0E002C0CC0FDD1F8A95E2F7C22BD32BF6
:101EC000DA685DCF8C2F8F710E945A10C82FD0E036
:101ED000DC2FCC27CC27DF71D06251CF8C2F8F71B4
:101EE0000E945A1055E0D695C7955A95E1F7CF70E4
:101EF000D0E0DC2FCC27282F30E084FF05C044E061
:101F0000220F331F4A95E1F7C22BD32BD06937CF6D
:101F10008D2F8F710E945A10182FCE0199270E9481
:101F2000B80FC12FD0E0DC2FCC27CC27DF71C82B16
:101F3000D92BD2CF462F711106C0653088F460E0EE
:101F40000E942A2208957D3F39F4611109C041E0C1
:101F500060E00E94362208957C3F11F46623C1F3AD
:101F600090E080E008950E949A0F0E947C0E0895F0
:101F700082389105B9F1B0F48133910509F47DC03F
:101F800048F48932910509F46DC08A32910509F44B
:101F90007BC008958533910509F45FC089339105AD
:101FA00009F10895833E9105D9F138F4803E9105F9
:101FB00029F1823E910579F10895863E9105D9F186
:101FC000873E910509F43EC0843E910541F520917C
:101FD000F90221FF24C08091F80284FD19C087EE28
:101FE00090E008952091F802237009F05AC02091E2
:101FF000F90223FF14C089E290E008952091F802CD
:1020000020FD38C03091F90230FF09C024FF43C0E1
:1020100090E080E008952091F80222FDF7CF089526
:102020002091F80222FD3AC03091F90230FD39C00A
:1020300024FFF5CFEDCF2091F80223FFF0CF24FD50
:10204000E7CFCDCF2091F80223FD2EC03091F902C9
:1020500031FFEECF84EE90E008952091F80225FF45
:10206000DECFC9CF2091F80225FD21C02091F902D1
:1020700023FFD5CF89E390E0D2CF2091F80226FF4D
:10208000CECF8AE290E008952091F80226FFC7CFD4
:1020900081E390E0089583EE90E0089582EE90E071
:1020A000089580EE90E0089586EE90E0089585E32F
:1020B00090E008959091F80292FF10C041E0282F1F
:1020C0002471243009F040E031E0282F28712830B5
:1020D00009F030E0431711F02CE0822793FF10C085
:1020E00041E0282F2471243109F040E031E0282F0D
:1020F0002871283109F030E0431711F02CE08227D5
:102100003091F90230FF10C051E0282F21712130A9
:1021100009F050E041E0282F2871283009F040E014
:10212000541711F029E0822731FF10C041E0282F19
:102130002171213109F040E031E0282F2871283148
:1021400009F030E0431711F029E0822794FD877EE3
:10215000089580E008950E94EF0C08950E944B11AD
:102160002FEF86E791E0215080409040E1F700C0DA
:1021700000000E944B1180E00E94EB1080FF04C021
:102180000E94AB100E94952608950E94AE100895FB
:102190000E94F60C811102C00E94980D0E94020D4F
:1021A000809393020E940C0D9093F9028093F802A1
:1021B0000E94C5100E94070D0E94AC078091FC018F
:1021C0000E94C407089508950E94E3100895089599
:1021D0000E94E7100895E82FF0E0E550FD4F808160
:1021E00008950895CF93AFE9B1E044EA51E061E08A
:1021F00070E08D918F3F91F0E82FE295EF70F0E065
:10220000C1A18F709B0101C0220F8A95EAF7922F1E
:1022100090959C2391A382A1822B82A34A175B07EE
:1022200041F7CF910895CF93DF93AC01A62FB0E093
:1022300085E0689FF0011124E156FE4F75E081E0D2
:1022400060E091919F3FC9F0C92FC295CF70D0E057
:1022500028A130E09F7002C0359527959A95E2F746
:1022600020FD0BC0282F622B880F715051F7A40F4F
:10227000B51F6C93DF91CF91089520E0F4CF0E94B9
:10228000F2101092FB021092FA0281E00E9470118B
:102290000E94E4100895A1E0B0E0E1E5F1E10C94C2
:1022A000792E198260E0CE0101960E94131190915F
:1022B000FA02898121E0981301C020E098138093ED
:1022C000FA0241E06BEF72E08AEF92E00E94711136
:1022D000182F0E94E810812F2196E3E00C94952E90
:1022E0000895CF92DF92EF92FF920F931F93CF93B7
:1022F0006C017B01042F222349F081E08093960238
:102300000E944A269093950280939402C09196026F
:10231000C1110AC0C0E08C2FCF911F910F91FF9087
:10232000EF90DF90CF900895809194029091950264
:102330000E946226059770F310E0A801B601C7015C
:102340000E94402F892B41F0A801B601C7010E94CD
:102350004D2F10929602DFCFC0E0FBCF0E943028B5
:102360000E94110E0E943D2808950E9442280E945A
:10237000200E0E945C2808950E94E3250E941628E2
:102380000E94F40D0E94AE110E94B5110E94070E2A
:10239000FBCF9093EF018093EE010895282F35EB4A
:1023A0002303C001112497FF04C080589109892F8D
:1023B000089580589F4FFBCF80919D0280FF0DC0F4
:1023C00060910B0170E0660F771F6038710570F542
:1023D0006115710569F1862F089581FF07C060912D
:1023E0000B0184E0689FB0011124EFCF60910B01D5
:1023F00082FD0AC080919C028823A9F020910A01E5
:1024000060910B01821710F088E0ECCF869FC0012D
:10241000112433E0880F991F3A95E1F7622F70E09D
:102420000E94F62DD2CF68E070E0D5CF8FE70895F7
:1024300081E0089580919D0280FF0CC060910701AA
:1024400070E075956795759567956115710549F10A
:10245000862F089581FF06C06091070170E0759591
:102460006795F3CF6091070182FD0BC090919B02AD
:102470009923A1F06091060180910701961738F029
:10248000682F70E06038710500F38FE70895899F29
:10249000C001112470E00E94F62DF4CF61E070E0DD
:1024A000D7CF81E008958D3C31F40E94DC118195F5
:1024B0008093A10208958E3C19F40E94DC11F8CF9C
:1024C0008F3C31F40E94DC1181958093A002089525
:1024D000803D19F40E94DC11F8CF893D29F40E9457
:1024E0001A128093A20208958A3D21F40E941A12C2
:1024F0008195F7CF8B3D31F40E941A12819580931C
:10250000A30208958C3D19F40E941A12F8CF9FE29D
:10251000980F983070F4815D990B21E030E001C094
:10252000220F8A95EAF780919F02822B80939F0267
:1025300008958D3D31F480919D02816080939D02CC
:1025400008958E3D21F480919D028260F7CF8F3DEA
:10255000B9F780919D028460F1CF4091A0028D3C3B
:1025600059F48091A10287FF0DC01092A102411180
:102570000BC010929C0208C08E3C81F48091A10295
:1025800018169CF3442381F08091A2029091A3023B
:10259000892B09F05AC010929B0208958F3C49F490
:1025A00047FFF0CF1092A0028091A1028111ECCFE1
:1025B000E0CF803D19F41416ACF3E4CF9091A20261
:1025C000893D29F41916F4F61092A202DBCF8A3D58
:1025D00019F497FFD7CFF8CF9091A3028B3D29F440
:1025E00097FFD0CF1092A302CDCF8C3D19F41916CE
:1025F000CCF3C8CF9FE2980F983090F4815D990B8F
:1026000021E030E0B90102C0660F771F8A95E2F73A
:10261000CB01809590919F02892380939F02B2CF36
:102620008D3D31F480919D028E7F80939D02AACFD3
:102630008E3D21F480919D028D7FF7CF8F3D09F073
:10264000A1CF80919D028B7FF0CF08950E944A26F2
:102650009C019091A0028091A102982B21F03093CF
:102660009A02209399029091A2028091A302982B42
:1026700021F030939802209397028EE992E00E9415
:102680006324089586E0EEE9F2E0DF011D928A9569
:10269000E9F710929C0210929B0210929D020895FD
:1026A000FC01828181110EC0838181110BC0848164
:1026B000811108C091E08581811101C090E0892FCE
:1026C0008170089581E0FCCFA6E0B0E0EAE6F3E196
:1026D0000C94792E86E0EEE9F2E0DE01119601908D
:1026E0000D928A95E1F71092A0021092A102109229
:1026F000A2021092A3028B819C81892B89F0809188
:10270000990290919A020E946226AC0190919C02DB
:102710009923C9F180910C018417150608F440C073
:102720008D819E81892B91F08091970290919802E2
:102730000E946226AC0190919B02992309F46AC021
:10274000809108018417150608F472C0BE016F5FFE
:102750007F4F8EE992E00E947D25811105C08EE9B0
:1027600092E00E94501381110E94261386E0FE0120
:102770003196AEE9B2E001900D928A95E1F7269686
:10278000E3E00C94952E20910D018AE0289F9001A2
:1027900011242417350720F69F5F90939C0202C0F6
:1027A0009F3FD1F71B81112359F00E94DC119FEF4D
:1027B00011160CF491E0899F802D11248093A002C2
:1027C0001C81112359F00E94DC119FEF11160CF4AB
:1027D00091E0899F802D11248093A1028091A00215
:1027E000882309F49DCF1091A102112309F498CFF9
:1027F0000E94CE11882351F08093A002812F0E9465
:10280000CE11882329F08093A1028ACF81E0F4CFF2
:1028100081E0F9CF209109018AE0289F90011124DD
:102820002417350708F092CF9F5F90939B0202C058
:102830009F3FD1F71D81112359F00E941A129FEF7B
:1028400011160CF491E0899F802D11248093A2022F
:102850001E81112359F00E941A129FEF11160CF4D9
:1028600091E0899F802D11248093A3028091A20280
:10287000882309F46BCF1091A302112309F466CFCA
:102880000E94CE11882351F08093A202812F0E94D2
:10289000CE11882329F08093A30258CF81E0F4CF92
:1028A00081E0F9CFEF92FF920F931F93CF93DF93C5
:1028B000EB01E82FD1110EC0442321F0F0E0E250EB
:1028C000FE4FE4916E2F7E2F8E2FCDB7DEB7E6E060
:1028D0000C94922E0D2F10E0282F30E0442329F085
:1028E00022503E4FF901249130E0F6E0CF9FC00125
:1028F0001124EFEFF0E0BF010E94E22DAB018C2F1D
:1029000090E0880F991FA5E5A49FB001A59F700DC9
:102910001124861B970B982F990F980FBF01601BEE
:10292000710B629FD001639FB00D729FB00D112497
:102930008B2F9D9FB0011124672F7727EF01C61BB6
:10294000D70BBE01629FE001639FD00D729FD00D37
:1029500011247F01E91AF108E09EB001E19E700D9B
:10296000F09E700D1124672F7727E61BF70BE29F6F
:102970008001E39F100DF29F100D1124E12F722FA3
:102980004230510599F048F44115510569F0413044
:10299000510581F0EB2F8D2F07C04430510569F0B0
:1029A00080F046305105B1F76E2F8FCFE22F7B2F8D
:1029B000812FFACFE22F7D2FF7CFEB2F822F712FB0
:1029C000F3CF7B2F822FED2FEFCF41E00E945214E7
:1029D000089508950E94E5140895CF93DF93762F0C
:1029E000E901682F842F0E94EA14798368838A831F
:1029F000DF91CF9108958091FC02982F9E7F29F45A
:102A0000817082608093FC0208958635E8F38170BE
:102A10008465F8CFB0E0A0E0E0E1F5E10C94742E1D
:102A200088E090E00E945E2F6B017C0184E290E0E0
:102A30000E94562F282F30E040E050E060E070E028
:102A400080E090E000E20E94A12EB22FA32FF42F8D
:102A5000E52FD62FC72F97018601BC29A12BFE2970
:102A60005E2F532B2B2F3A2F4F2F6D2F7C2FCDB74F
:102A7000DEB7E8E00C94902EB0E0A0E0E2E4F5E1EF
:102A80000C94702E49015A016B017C010E94FB14C9
:102A90008401A4016A2D7B2D88E090E00E948C2F98
:102AA00094014A2D5B2DB601C70100E20E94BC2EA5
:102AB000622F84E290E00E947A2FCDB7DEB7ECE07F
:102AC0000C948C2EECEFF2E0208131814281538115
:102AD00064817581868197810E943C150895ECEF91
:102AE000F2E083E0808311828FEF828383831482FC
:102AF000758123E030E04FEF5FEF60E086819781E2
:102B00000E943C1508958091FC0280FF02C08695CA
:102B1000089580E008958091FC028170089590915D
:102B20000003933018F49F5F90930003882391F083
:102B30002091FC023091FD024091FE025091FF0273
:102B4000609100037091010380910203909103034F
:102B50000E943C15089581E00E948F150895909180
:102B60000003992319F0915090930003882391F06A
:102B70002091FC023091FD024091FE025091FF0233
:102B8000609100037091010380910203909103030F
:102B90000E943C15089581E00E94AF150895809130
:102BA0000003089580930003662389F02091FC02BE
:102BB0003091FD024091FE025091FF02709101039D
:102BC000682F80910203909103030E943C150895A1
:102BD00060E00E94D21508958091FD0208958091D1
:102BE000FE0208958091FF02089570E00E947D1C0E
:102BF0000895609112018091FC0280FF0BC08091CA
:102C0000110123E0829FC00111248C5F9C4F0E9420
:102C1000F5150895809113019091140123E0829F8E
:102C2000F0011124EC5FFC4F891748F711821082E4
:102C300012828F5F3396F8CF9091FC0290FF0EC006
:102C4000909113012091140133E0939FF00111241E
:102C5000EC5FFC4F921718F00E94F91508958183DC
:102C6000608342839F5F3396F5CFA3E0B0E0EBE350
:102C7000F6E10C947A2E9091FC0290FF0AC09E011E
:102C80002F5F3F4F0E94ED144B8169818A810E9422
:102C90001C162396E2E00C94962ECF93DF93EC0162
:102CA000EC81F0E0E750FF4F4491ECEFF2E06281FD
:102CB00081810E9435168C818F5F8C83DF91CF914B
:102CC0000895CF93DF93EC01ECEFF2E04381628152
:102CD0008C810E9435168C818F5F8C83DF91CF9120
:102CE0000895A3E0B0E0E7E7F6E10C94782E8C01BC
:102CF0008091A40281110AC09E012F5F3F4F4FEFC8
:102D00006FEF0E94ED148A818093A402F801648120
:102D1000613069F08091A40240E0662361F040E0F8
:102D2000623011F44091A40280E060E004C0609140
:102D3000A40240E080E00E941C16F801848190E02B
:102D4000019663E070E00E94F62D84832396E4E010
:102D50000C94942EA3E0B0E0E0EBF6E10C94732E1B
:102D6000082FD62EF42EC22E9091FC0290FF2EC07A
:102D7000E92FE695AE2FB0E0AC55BE4F8C91809315
:102D8000C4029E7F923031F59E012F5F3F4F802F0E
:102D90000E94ED144B8169818A810E941C16009368
:102DA000FD02D092FE02F092FF02CC2079F0209139
:102DB000FC026091000370910103302F4D2D5F2DB7
:102DC00080910203909103030E943C152396E9E051
:102DD0000C948F2E823019F4F090FF02E0CF8630F1
:102DE00019F40091FD02DBCF8930D9F38931B9F6AE
:102DF000E9516E2F6170B62EE695F0E0E750FE4F78
:102E00001491E12C60911501E61618F00E94F91555
:102E1000C6CFE19EC001112470E00E94E22D802FF8
:102E2000B11014C0860F20911301622F6E0D772709
:102E3000771F9B01220F331F260F371F2C5F3C4F3C
:102E40004F2D6D2D0E94ED14E394DCCF861BEBCF4C
:102E5000ECEFF2E09181282F4381628188E0890FB5
:102E60000E94AA16089581E00E9428170895ECEFA9
:102E7000F2E09181282F4381628188EF890F0E94BF
:102E8000AA16089581E00E9437170895ECEFF2E04A
:102E9000628128E0620F08F46FEF282F438181815F
:102EA0000E94AA16089581E00E9446170895ECEF4B
:102EB000F2E0628128E0621B08F460E0282F438181
:102EC00081810E94AA16089581E00E9457170895F3
:102ED000ECEFF2E0438128E0420F08F44FEF282F97
:102EE000628181810E94AA16089581E00E9468177C
:102EF0000895ECEFF2E0438128E0421B08F440E043
:102F0000282F628181810E94AA16089581E00E9483
:102F10007917089520E00E94AA160895EF92FF9273
:102F20001F93CF93DF93EC0110E0EE24EA94F12C91
:102F300060911501161770F00E94F9159A818C8125
:102F400090FF27C08F5F8C83DF91CF911F91FF90FF
:102F5000EF90089520911301422F410F5527551FDF
:102F6000CA019A01220F331F280F391F2C5F3C4FD3
:102F700070E0C7010E94F62D962F8C814091FF02D0
:102F80006091FE02199F800D11240E94ED141F5FB5
:102F9000CFCF8150D8CFB0E0A0E0E1EDF7E10C94C5
:102FA000732EFC0182810FEF80FF01E010E0809121
:102FB0001501181798F00E94F9158091A6020130AA
:102FC00009F04CC0811102C080911501815080939D
:102FD000A602CDB7DEB7E9E00C948F2EC0911301A5
:102FE000C12ED12CCC0DDD2DD11DCE01880F991F06
:102FF000C80FD91FCC5FDC4F198218821A8234E0C7
:10300000E32EF12CB12C8091A6028B0D853004F1BA
:103010008370082E000C990BC816D90691F4809184
:10302000FF028E9DA0018F9D500D1124559547954F
:10303000559547959E016091FE028091FD020E9488
:10304000ED14B00EF1E0EF1AF108E9F61F5FAFCF13
:1030500087FFDFCF90911501890FDBCF90E00196BC
:103060006091150170E00E94F62DB1CF0F931F9370
:10307000CF93DF93809113019091140123E0829FFD
:10308000F0011124EC5FFC4F891740F1C0E0D3E060
:1030900060911501C61740F10E94F91520910F01AA
:1030A0008091A502820F8093A50290911001920F4A
:1030B00090931001191654F4082E000C990B4091AE
:1030C00015014150550B841795071CF0219520934D
:1030D0000F01DF91CF911F910F91089511821082FE
:1030E00012828F5F3396D0CF0C2F10E070E0C801B2
:1030F0000E94F62D20911301820F482F50E020915D
:10310000A502022E000C330B02171307BCF020910E
:103110001001022E000C330B201731077CF08D9F1D
:10312000900111242C5F3C4F4091FF026091FE0200
:103130008091FD020E94ED14CF5FAACFFA01EE0F3D
:10314000FF1FE40FF51FEC5FFC4F1182108212820B
:10315000F3CFB0E0A0E0EFEAF8E10C94702EEC01C0
:103160004C81042F10E09801D8010E94412E9B0150
:10317000AC010E94572E4B015C01E0E2F0E0E01B45
:10318000F10BA5E5B0E0AC019B010E94572E6B014D
:103190007C019F01DF010E94392E9B01AC010E943E
:1031A000622E9B01AC01280D391D4A1D5B1DC70114
:1031B000B6010E940A2EF22E822F90E039E23F15CE
:1031C00020F143E0249F9001112435952795122F7B
:1031D000109500E085E5E82EEF188091150108179D
:1031E00018F10E94F9159C8181E0992319F0903221
:1031F00019F48FEF80930E0180910E01890F8C835B
:10320000CDB7DEB7ECE00C948C2E25E530E0B901AB
:10321000681B790B9B01220F331F260F371F37FFC7
:10322000D4CF2F5F3F4FD1CF8E2D01FD8F2D209119
:103230001301622F600F7727771F9B01220F331F27
:10324000260F371F2C5F3C4F412F6091FE020E94DA
:10325000ED140F5FC2CF0F931F93CF93DF93EC0159
:1032600010E000E0909115019017110609F06CF440
:103270000E94F9158C8190E00196817099278C83CA
:10328000DF91CF911F910F91089520911301A80113
:10329000420F511D9A01220F331F240F351F2C5F3F
:1032A0003C4F4C816091FE028091FD0296959017F3
:1032B000110651F04CF0442349F04091FF020E9466
:1032C000ED140F5F1F4FCECF4423B9F340E0F7CF8B
:1032D000B0E0A0E0EEE6F9E10C946C2EFC01628017
:1032E000448081E08483E9EFF0E07490E8E7F1E066
:1032F000E491C091FF02C695C158D0E0CC0FDD1F0C
:10330000CD2FDD27812C75E0972EAA24AA94B12C0D
:1033100055245A94E719EE2EF12C80911501881648
:1033200038F00E94F915CDB7DEB7E0E10C94882E95
:10333000C82CD12C82E0861568F09C9CF0019D9CE5
:10334000F00D1124E955FD4F8091FD02808380919D
:10335000FE028183411023C09C9CF0019D9CF00DD6
:103360001124E955FD4F1382128220911301C601E9
:10337000820F911D9C01220F331F280F391F2C5FD4
:103380003C4F9C9CF0019D9CF00D1124E955FD4F94
:103390004281618180810E94ED148394BECF9C9C08
:1033A00080019D9C100D112409551D4FF80183814A
:1033B0008823F1F081508383859DC00111246481AD
:1033C00070E00E94E22DFB01FF27E750FF4F849140
:1033D000E82FE719E59DC0011124B7010E94E22DF5
:1033E0008091FF02689FB0011124F8017283BDCF64
:1033F0000E94232FB5010E94F62D8C179D070CF01B
:10340000B4CFF2E0F61598F40E94232FB5010E9484
:10341000F62DF80180830E94232F2091FE0226952D
:10342000622F70E00E94F62D280FF80121839C9CEA
:10343000F0019D9CF00D1124E955FD4F1282809101
:10344000FF02893C58F088EC9C9CF0019D9CF00D9B
:103450001124E955FD4F8483838387CF8431A0F7FE
:1034600084E1F2CFECEFF2E020812E7F20833181E6
:103470004281538164817581868197810E943C15C8
:103480001092C5020E94F9150895ECEFF2E08081D8
:103490008E7F80831092C5020E94F91508951092C4
:1034A000C5028091C20281110AC081E08093C202EC
:1034B0008091FC0281708093C1020E94451A089598
:1034C0006091FC02669570E04BE050E086E191E08F
:1034D0000E94332F892B19F481E08093C5020E944A
:1034E0004A269093BC028093BB0208959091FC02FF
:1034F00090FF33C09170811131C092609093FC02B3
:10350000662391F02091FC023091FD024091FE0271
:103510005091FF02609100037091010380910203BA
:10352000909103030E943C156091FC02669570E047
:103530004BE050E086E191E00E94332F892BA9F007
:103540001092C50281E08093BE024091FF0260911B
:10355000FE028091FD020E948A1708958B3210F0BE
:103560009465CCCF880F982BC9CF0E94601AEACF00
:10357000682F9091FC02969581E0890F8B3208F0BC
:1035800081E00E94761A089581E00E94B81A089599
:10359000682F9091FC0296958FEF890F09F48AE2CB
:1035A0000E94761A089581E00E94C81A089561E089
:1035B0000E94761A0895ECEFF2E0808181608083AA
:1035C00086950E94D71A08958091FC0280FF03C05F
:1035D0000E94321A08950E94DB1A089560E00E944A
:1035E000761A08958091C30281113EC00E94F60CA4
:1035F000811104C00E94980D0E946F150E940A1547
:103600002093FC023093FD024093FE025093FF0290
:10361000609300037093010380930203909303036C
:103620002E7FA1F40E946F150E940A152093FC02C0
:103630003093FD024093FE025093FF02609300031B
:103640007093010380930203909303030E94FB1481
:103650001092C5028091FC0280FF03C086950E94F3
:10366000EE1A81E08093C3020895ECEFF2E08081CE
:103670008160808386950E94EE1A08958091FC02F5
:1036800080FF03C00E94451A08950E94351B0895CB
:103690001092C2028091C10281110E94351B0E94CA
:1036A000601A08950F931F93CF93DF938091C50203
:1036B0008823B9F18091C402E091FC02E695E81BF1
:1036C000E093BD02823091F5F0E0EB50FF4FE491C2
:1036D000CE2FD0E00DE416E18091BE02882361F088
:1036E0001092BE020E944A269093BC028093BB02B5
:1036F0001092C0021092BF020E944A26E091BB02C3
:10370000F091BC028E1B9F0B8F3F9F4750F4EC0F34
:10371000FD1FF093BC02E093BB028BEB92E0F8013B
:103720000995DF91CF911F910F910895863049F44B
:10373000F0E0EE50FF4FE491CE2FD0E001E616E12D
:10374000CBCF893051F4E695F0E0E151FF4FE491A1
:10375000CE2FD0E00EE817E1BFCF8F3051F4E695C1
:10376000F0E0E451FF4FE491CE2FD0E00BEC17E1F5
:10377000B3CF853149F4F0E0E751FF4FE491CE2F0C
:10378000D0E006E318E1A8CFC8E2D0E009EA18E1EA
:10379000883109F4A1CF833239F4E7EEF0E0C59126
:1037A000D49101E716E198CFC4EFD1E00BE219E123
:1037B000843209F491CFC0EDD7E009EE14E18532EF
:1037C00009F08ACF8E2F63E00E94D62DE92FF0E01A
:1037D000EC51FF4FE491CE2FD0E008E619E17CCF09
:1037E000FA01811101C0FB0109950895CF93DF9380
:1037F000C82FD62F0E9483158C1748F00E9483157E
:103800008D1728F40E94C41ADF91CF9108958C2F50
:103810000E94D71AF9CF1F93CF93DF93EC01FB01DE
:103820001581111110C00E94F50B8272FE01E05249
:10383000F847E531F10508F05EC0E552F04D0C9413
:103840002C2E0E94E41A812FDF91CF911F910895B1
:1038500043ED5AE164EC7AE10E94F01BF4CF44ECB2
:103860005AE163ED7AE1F8CF42E457E163E377E1AF
:10387000F3CF43E357E162E477E1EECF44E657E16B
:1038800063E577E1E9CF43E557E164E677E1E4CF2B
:1038900046E857E165E777E1DFCF45E757E166E8BE
:1038A00077E1DACF4BEC55E16BEA75E1D5CF4BEA26
:1038B00055E16BEC75E1D0CF81E00E94D71AC3CF00
:1038C00065E082E00E94F61BBECF68E086E0FACF9A
:1038D0006EE089E0F7CF64E18FE0F4CF67E185E146
:1038E000F1CF88E1EACF62E289E1ECCF83E2E5CF74
:1038F0006AE285E2E7CF11E0A6CF6E9A4EB14F7B28
:103900005EB15064EFB7F8949B01220F331F260F6E
:10391000371F280F391F2817390741F4EFBF8FE5EC
:1039200094E00197F1F700C000000895DC016D916B
:10393000CD0178E05EB9000000C067FF4EB9660FA8
:10394000000000C000C000C04EB900C07A9591F7D9
:10395000E2CF85E290E00E94562F833289F486E21E
:1039600090E00E94562F823159F487E290E00E9445
:10397000562F91E0893009F090E0892F81700895E9
:1039800080E0FCCFCF93C82F6FEF811163E285E217
:1039900090E00E947A2F6FEFC11162E186E290E021
:1039A0000E947A2F6FEFC11169E087E290E00E94D8
:1039B0007A2FCF910895089588E290E00E94562FC3
:1039C000682F70E090E080E008950895CF93C62FAF
:1039D0000E94E51C6C2F88E290E00E947A2FCF9124
:1039E000089580E00E94C21C60E070E0CB010E945C
:1039F000E61C0E94B6210E948F2281E00E94C21C18
:103A000008950E94DB1C0E94DC1C0E94E51C0E94A1
:103A1000A91C811102C00E94F11C08950E943E1B46
:103A200008959C01FB018581882351F0A901575716
:103A30004038510530F4822F0E949F2280E0089583
:103A400081E008952FEFFC012083089580E0089520
:103A5000CF93DF93EC0188818230E9F028F4813044
:103A600071F0DF91CF9108958330F9F08430C9F778
:103A70000E94EC1589830E94EF158A83F2CF0E9481
:103A8000F2152FEF829FC00111246FEF70E00E94AA
:103A9000E22D6983E6CF0E948B15882321F00E94D6
:103AA00083158983DECF80E0FCCF0E94CF15F9CF4C
:103AB000CF93DF93EC018881823021F128F48130AB
:103AC00069F0DF91CF910895833041F18430C9F7D7
:103AD0000E94F215482F6A81898111C089812FEFD8
:103AE000829FC00111246FEF70E00E94E22DD62F5B
:103AF0000E94EF15C82F0E94EC154D2F6C2F0E94CD
:103B00008A17DFCF8981811103C00E94451AD9CF5E
:103B10000E94351B89810E94EE1AD3CF89810E94B1
:103B2000E815CFCFFC019C012E5F3F4F908198306C
:103B300041F0993051F0973059F4C9010E94581D55
:103B40000895C9010E94281D08950E9462150895D4
:103B50008FEF80830895FC012181223019F40E94A7
:103B6000921D08950E94221D0895EF92FF920F93D7
:103B70001F93CF93DF93EC01162F0E94261D811116
:103B800010C0E881E150E531B8F4F0E0E051F04DCB
:103B90000C942C2E19828CE08A83612FCE010E9416
:103BA0000A27CDB7DEB7E6E00C94922E89818230E9
:103BB000C1F028F4813061F08FEF8883EECF83303D
:103BC00099F08430C9F71A821B821C821D82E5CFCE
:103BD0000E9456260E94322E6A837B838C839D83AB
:103BE000DCCF0E94DC1CF6CF0A81802F90E07E01A2
:103BF00023E0E20EF11C892B81F680E00E94EB109D
:103C0000F70181937F0181E090E0053EA1F7C5CFE8
:103C10008981823031F0853079F68A810E940E1DCB
:103C2000BCCF6A817B818C819D810E94322E0E9453
:103C3000E61CB3CF4B816A8189810E940D219827B0
:103C4000892798279D838C83A8CF2C813D8132279B
:103C5000232732274B816A8189810E9437219DCF9A
:103C60000E94B6219ACF612FCE010E94AB1D95CF45
:103C70000E944022898391CF0E944222982789275F
:103C800098279A83898389CF6B8170E089819A8193
:103C9000AE014C5F5F4F9827892798270E944522E5
:103CA0007CCF6B8170E089819A81AE014C5F5F4F60
:103CB0009827892798270E946A226FCF0E948F2217
:103CC0006CCF0E940B21D6CF6B8170E089819A81E5
:103CD000AE014C5F5F4F9827892798270E94E42107
:103CE0005CCF6B8170E089819A81AE014C5F5F4F40
:103CF0009827892798270E9407224FCF41E08B8180
:103D0000811101C040E06A8189810E94582197CFCA
:103D10002C813D8132272327322741E08B8181117D
:103D200001C040E06A8189810E948B2136CFCF9308
:103D3000DF93EC01FB018581882309F4D2C09E0149
:103D400030572332310508F0B2C00E940C0D909319
:103D5000F9028093F802FE01E150F047E232F105EA
:103D600020F4EB5FFF4C0C942C2E8091F8028160C4
:103D70008093F80293C08091F90288608093F902E1
:103D80008DC08091F8028260F3CF8091F802846048
:103D9000EFCF8091F8028860EBCF8091F9028160CB
:103DA000EDCF8091F9028260E9CF8091F8028061C5
:103DB000DFCF8091F8028062DBCF8091F8028064CF
:103DC000D7CF0E9461078091F8028068D1CF80919F
:103DD000F8028C60CDCF8091F9028360CFCF8091C3
:103DE000F8028E7FC5CF8091F902877FC7CF80917F
:103DF000F8028D7FBDCF8091F8028B7FB9CF809183
:103E0000F802877FB5CF8091F9028E7FB7CF80917E
:103E1000F9028D7FB3CF8091F8028F7EA9CF809178
:103E2000F8028F7DA5CF8091F8028F7BA1CF0E94F1
:103E300061078091F8028F779BCF8091F802837F92
:103E400097CF8091F9028C7F99CF8091F80282FB05
:103E5000992790F921E0922790FB82F990FB83F952
:103E600087CF8091F902982F909591708E7F892B42
:103E700090FB81F983CF9091F802892F8F7B96FF79
:103E8000806476CF0E9461079091F802892F97FB9A
:103E900087F980586DCF81E00E949B0D8091F802D8
:103EA0009091F9020E94110D0E94610780E0DF915C
:103EB000CF91089580E0F0CF9091F802892F8F7E06
:103EC00094FF806155CF9091F802892F8E7F90FFEB
:103ED00081604ECF9091F902892F877F93FF886090
:103EE0004DCF81E0E4CFB0E0A0E0E9E7FFE10C9442
:103EF000752EE82FF0E0E250FD4FD490282F269544
:103F00002695269530E0F901E256FC4F0491877022
:103F100010E0082E02C0159507950A94E2F701708B
:103F20001127F901E257FC4FE490F12C082E02C052
:103F3000F594E7940A94E2F791E0E922FF24F9016D
:103F4000E258FC4FC491D0E002C0D595C7958A9540
:103F5000E2F7C170DD270115110519F081EE0E940D
:103F60007604E114F10419F086EE0E9476048D2D9A
:103F70000E940E05E114F10419F086EE0E94C304BC
:103F80000115110519F081EE0E94C304CD2B19F023
:103F90008CE20E940E05CDB7DEB7E7E00C94912EBF
:103FA000EF92FF920F931F93CF93DF93EC01162FA5
:103FB0000AE08881882309F454C0813009F04EC09A
:103FC0008981813099F47E0122E0E20EF11C8A8120
:103FD0000E940E05E7012196812F815050F3EFE9F1
:103FE000FFE03197F1F700C00000F7CF823041F4D5
:103FF0007E0182E0E80EF11C8A810E947604EACFFD
:10400000833041F47E01E2E0EE0EF11C8A810E94D1
:10401000C304E0CF843011F02196DDCF2A812296AF
:1040200090E080E0AE014F5F5F4F2053330B2A30AA
:10403000310548F0019778F2EFE9FFE03197F1F7A9
:1040400000C00000F7CF089FB001099F700D112438
:10405000C901860F971F2981EA01E4CF0E94731FCF
:10406000BACFCDB7DEB7E6E00C94922E8FE891E0A0
:104070000197F1F700C00000089581E08093C70226
:1040800024982C9A57985F9A0E9436204091C70234
:1040900069EC72E0FB018E2F861B841708F00895EF
:1040A00083B18295817029B130E0220F232F221F26
:1040B000330B90E0232B09F092E0892B8193EBCF17
:1040C000A8E1B0E0E6E6F0E20C946D2E10E000E02E
:1040D00032E0932E44E0A42EB12C5DEF852E7724A0
:1040E00073946CEF662E73E0572E8091C7021817F9
:1040F00028F0802F6896EFE00C94892EE12EF12CA9
:10410000E3B1E295E17089B190E0880F892F881FB3
:10411000990B892B09F07DC080E08E2BD701A75326
:10412000BD4FEC919E2F9370981709F470C0EE0F5D
:10413000EE0FE82BEC93EF70F0E0E153FE4FC70178
:1041400088539D4F6C018081F6019081890F808397
:1041500020E084303CF1F701EA53FD4F80818F5F0E
:1041600080830E944A261D876E86682F8F87988BD2
:10417000598A7A8A412F5CEF792F83E091E00E947F
:1041800033040E944A261B8B6C8A682F8D8B9E8B72
:104190005F8A188E412F5CEF792F83E090E00E94B8
:1041A000330421E0F60180818D3F3CF5F701EA53AD
:1041B000FD4F8081815080830E944A2619838A8224
:1041C000682F8B839C839D827E82412F5DEF792FA8
:1041D00082E091E00E9433040E944A261F83888671
:1041E000682F89879A879B861C86412F5DEF792FE0
:1041F00082E090E00E94330421E0F6018081082EE5
:10420000000C990BB5010E94F62D8083022B1F5FD5
:104210006CCF82E082CF84E008950F931F93CF93F9
:10422000DF93843008F561111FC04530E8F4042F96
:1042300010E0000F111F2AE0829F000D111D1124B4
:10424000C80189960E94562FC82FD0E0DC2FCC27BA
:10425000C8018A960E94562F9E01282BC901DF9122
:10426000CF911F910F91089590E080E0F8CF1F93B8
:10427000CF93DF93122F8430B8F4611115C045300D
:1042800098F4C42FD0E0CC0FDD1F9AE0899FC00DB9
:10429000D11D1124632FCE0189960E947A2F612FA0
:1042A000CE018A960E947A2FDF91CF911F910895B7
:1042B000FF920F931F93CF93DF93F42E843040F53A
:1042C000611126C024E0829F800111240F5A1F4FE4
:1042D00082E090E0442311F090E080E0800F911F95
:1042E0000E94562FC82FD0E0DC2FCC2783E090E02F
:1042F000FF2011F081E090E0800F911F0E94562F67
:104300009E01282BC901CDB7DEB7E5E00C94932EB2
:1043100090E080E0F8CF0F931F93CF93DF93142F9B
:10432000022F8430F0F461111CC094E0899FE001F9
:104330001124CF5ADF4F82E090E0442311F090E047
:1043400080E0632F8C0F9D1F0E947A2F83E090E006
:10435000112311F081E090E0602F8C0F9D1F0E94CF
:104360007A2FDF91CF911F910F910895CF93DF9313
:10437000C0E0D0E04D2F60E08C2F0E94D6029C015F
:104380004D2F60E08C2F0E943721DF5FD53091F7F1
:1043900041E060E08C2F0E94ED029C0141E060E072
:1043A0008C2F0E948B2140E060E08C2F0E94ED0258
:1043B0009C0140E060E08C2F0E948B21CF5FC430D5
:1043C000C1F6DF91CF910895EF92FF920F931F9363
:1043D000CF93DF93EC018A017C01E60EF71ECE013C
:1043E0008996CE15DF0529F4CDB7DEB7E6E00C944B
:1043F000922EC832D10540F40E94562FF8018083D6
:104400000F5F1F4F2196EBCFF8011082F9CFB0E07C
:10441000A0E0EDE0F2E20C94742E7C016A018C01C4
:10442000060F171FEC01CE018996C017D10729F49A
:10443000CDB7DEB7E8E00C94902EC832D10540F439
:10444000FE01EE19FF09EC0DFD1D60810E947A2F1F
:104450002196E9CF843038F4611105C0453018F455
:104460000E940D21089590E080E00895843028F4A2
:10447000611103C00E945821089590E080E00895E2
:1044800080E108958FE993E00895EF92FF920F93F2
:104490001F93CF93DF93EC018A017C01E60EF71E98
:1044A000CE018F599F4FCE15DF0529F4CDB7DEB76A
:1044B000E6E00C94922ECF3923E0D20740F40E941C
:1044C000562FF80180830F5F1F4F2196E9CFF80127
:1044D0001082F9CFB0E0A0E0E0E7F2E20C94742E95
:1044E0007C016A018C01060F171FEC01CE018F5968
:1044F0009F4FC017D10729F4CDB7DEB7E8E00C9481
:10450000902ECF3923E0D20740F4FE01EE19FF09C7
:10451000EC0DFD1D60810E947A2F2196E7CFCF938D
:10452000DF93C1E6D0E060E0CE010E947A2F2196B1
:10453000C11584E0D807B9F7DF91CF910895A8E0BD
:10454000B0E0E5EAF2E20C94722EF82E8FE08F15BF
:1045500008F46EC08FEF93E00E94562F811168C05F
:1045600001E610E0F11035C0FE0131966F0188E0E0
:1045700011928A95E9F77801FFEFEF1AFF0AC80157
:104580000E94562F89831A82882309F451C08130F2
:10459000D1F4580182E0A80EB11CC7010E94562F29
:1045A0008A83882309F444C09FEF980F9330F0F476
:1045B000780193E0E90EF11CC5010E94562F8B8310
:1045C0008823B1F11C8260E0C6010E94D01F8701E0
:1045D000D2CF011594E0190759F1C8010E94562F56
:1045E000811101C0FA940F5F1F4FBCCF7501843059
:1045F00051F702E010E07501EFEFEE1AFE0AC50177
:104600000E94562FF601E00FF11F8083882381F06E
:104610008C3741F4E2E0F0E0EC0FFD1FE00FF11FFA
:104620001082D1CF0F5F1F4F57010730110519F7C7
:104630002896EAE00C948E2ECF93DF93EB0186311F
:104640009C4711F50E94F50B9D81992399F08A7A78
:1046500091E009F490E09093CA02811109C089E2C7
:104660000E94CD0B0E944E0C80E0DF91CF91089507
:1046700085E3F6CF8091CA02811104C089E20E94CD
:10468000D50BF0CF85E3FBCF81E0EFCF0F931F93E6
:10469000CF93DF93C42FD22FFC0185818823C9F0EB
:1046A0004093CD020E944A269093CC028093CB0285
:1046B00080E28C0F883040F4C77081E001C0880F21
:1046C000CA95EAF70E941705DF91CF911F910F91CC
:1046D00008951091CD02141332C08091CB029091B5
:1046E000CC020E946226883C910548F5C0E2CD0FBD
:1046F0001D17B9F080E2810F883040F4177081E017
:1047000001C0880F1A95EAF70E941E05C83048F4C8
:1047100081E09D2F977001C0880F9A95EAF70E945B
:104720001705802F0E940E05C83070F6D77081E003
:1047300001C0880FDA95EAF70E941E05C5CF80E216
:104740008C0F883008F6C77081E001C0880FCA95C9
:10475000EAF7F2CF0F93DB0188519C478730910530
:10476000A0F5FC01E95DFF4C0C942C2E06E221EE35
:1047700041EE6AE17CE7CD010E94462380E00F9183
:10478000089507E225EE45EE6BE17CE7F4CF06E203
:1047900021EE40EE68E17CE7EECF07E225EE44EE45
:1047A00069E17CE7E8CF06E221EE42EE6CE17CE7CE
:1047B000E2CF07E225EE46EE6DE17CE7DCCF08E2D2
:1047C00021E045EE6EE17CE7D6CF15968C918823EB
:1047D00019F01092CD02D3CF81E0D1CF1F93CF93A8
:1047E000DF9387372CE7920759F0C1E088379C4761
:1047F000E1F4FB01C581CC2371F10E94312406C094
:10480000FB01C581CC23B1F00E942E240E94D90760
:104810000E943424D82F0E943124C82F0E942E24B5
:104820004D2F6C2F0E940709C0E08C2FDF91CF9194
:104830001F9108950E942E240E94E5070E943424AF
:10484000182F0E943124D82F0E942E24412F6D2F23
:104850000E940709EACF0E943124EECF8091230104
:1048600008958091220108958091210108959093E7
:10487000D3028093D2020895E091D202F091D30244
:10488000309729F00190F081E02D0995089580E09E
:104890000895E091D202F091D302309799F02091DF
:1048A0002C01222359F02091F80227FF07C0DC01D8
:1048B0002C9111962C93119726E02C930280F38172
:1048C000E02D09950895E091D202F091D30230973E
:1048D00039F022E0DC012C930480F581E02D09956C
:1048E0000895A3E0B0E0E7E7F4E20C947A2E20917B
:1048F000D0023091D10228173907A1F09093D1024C
:104900008093D002E091D202F091D302309751F01F
:1049100023E029839B838A830680F781E02DCE01E3
:10492000019609952396E2E00C94962EA3E0B0E060
:10493000ECE9F4E20C947A2E2091CE023091CF0271
:1049400028173907A1F09093CF028093CE02E0910F
:10495000D202F091D302309751F024E029839B8357
:104960008A830680F781E02DCE0101960995239672
:10497000E2E00C94962EFC01329680912C01882363
:1049800021F08091F8029EE187FF96E080E091504F
:1049900008F4089521912223D1F38F5FF8CF662385
:1049A00001F120912C012223F1F02091F80227FF40
:1049B0001AC0462F4695469546954E3190F467703D
:1049C00021E030E002C0220F331F6A95E2F7840F26
:1049D000911DFC01828190E02823392381E0232B63
:1049E00069F480E00895FC0132960896219126171B
:1049F00021F0E817F907D1F7F4CF81E008959C0181
:104A0000FC0132969FEF80E04191461751F09F3FA5
:104A100019F4411101C0982F8F5F8630A9F79F3F8D
:104A200009F40895290F311D97FD3A95F901628324
:104A30000895FC01329608962191261303C0DF01E8
:104A400011971C92E817F907B9F70895E62FE69534
:104A5000E695E695EE3168F4E80FF92FF11D6770E1
:104A600021E030E001C0220F6A95EAF78281822BB3
:104A700082830895E62FE695E695E695EE3170F48B
:104A8000E80FF92FF11D677021E030E001C0220F1F
:104A90006A95EAF720958281282322830895209140
:104AA0002C01222339F02091F80227FF03C00E9435
:104AB000262508950E94FF24089520912C01222389
:104AC00039F02091F80227FF03C00E943A2508958B
:104AD0000E9419250895FC01329680912C018823AB
:104AE00051F08091F80287FF06C08EE1DF011D9230
:104AF0008A95E9F7089586E0F9CFDC01FB0111966C
:104B00009C9111978181981322C012968C911297D3
:104B1000882319F0928189131AC013968C911397E8
:104B2000882319F09381891312C015968C911597DB
:104B3000882319F0958189130AC014969C919923B2
:104B400021F081E02481291303C080E001C081E0CD
:104B50008170089508950E94AA250895811106C0C4
:104B600081E08093D4020E94AB25089582E0F9CFC2
:104B700083E08093D4020E94AB2508950E94AE2565
:104B8000089581E08093D4020E94AB2508950E948D
:104B9000C1250895089508950E94CB25089508958C
:104BA00008950E94CA2508950E94CF250E944B11A6
:104BB0000E94D02580E00E94EB1091E0811101C09D
:104BC00090E0892F089585B7806885BF85B7806894
:104BD00085BF08951F921FB61F9211248F939F9334
:104BE000AF93BF938091D502811113C080911003C0
:104BF00090911103A0911203B09113034196A11D4E
:104C0000B11D8093100390931103A0931203B093EE
:104C10001303BF91AF919F918F911F901FBE1F9063
:104C2000189580911803843031F10E94E6031092A8
:104C3000D50288E190E020E40FB6F894A89580931F
:104C400060000FBE2093600083B7817F846083BFC4
:104C500083B7816083BF7894889583B78E7F83BF45
:104C60000FB6F894A89580916000886180936000E9
:104C7000109260000FBE08950E9461070E94ED032C
:104C8000089582E084BD93E095BD9AEF97BD80932F
:104C90006E0008952FB7F89480911003909111033E
:104CA000A0911203B09113032FBF08952FB7F8946A
:104CB000609110037091110380911203909113037E
:104CC0002FBF08959C014FB7F894809110039091E5
:104CD0001103A0911203B09113034FBF821B930BDA
:104CE000089578941F921FB61F9211248F939F935B
:104CF000AF93BF938091100390911103A091120381
:104D0000B09113030196A11DB11D809310039093E0
:104D10001103A0931203B0931303BF91AF919F911E
:104D20008F911F901FBE1F90189587E797E790936C
:104D300001088093000888E19AE00FB6F894A895DE
:104D4000809360000FBE90936000FFCF88E19AE0EF
:104D50000FB6F894A895809360000FBE9093600002
:104D6000FFCF8091F60208959B01BA01909118033C
:104D70009430E9F48F708093E9009FEF8091E80010
:104D8000915085FD06C085ED8A95F1F700009111DF
:104D9000F5CF8091E80085FF0AC050E040E0C901EE
:104DA0000E9400298091E8008E778093E8000895A2
:104DB00043E050E0BC0184E00E94B426089546E040
:104DC00050E0BC0184E00E94B4260895CF93DF93A5
:104DD000EC0180912C01811111C048E050E0BE012E
:104DE00081E00E94B42680E2FE01A6EDB2E00190CF
:104DF0000D928A95E1F7DF91CF9108958091F802A5
:104E000087FF05C040E284E050E0BE01EACF48E001
:104E100081E0FACF603231F440E250E0BC0182E040
:104E20000E94B426089580911703811109C00E9441
:104E3000DF2A0E943C2B8091E20084608093E20094
:104E400008951092170308950E94C1250895609156
:104E5000140381E0611101C080E00E94B82508952B
:104E60009091180381E0943009F080E06091140380
:104E70000E94BE25089542E061EC81E00E945B2A19
:104E800042E261EC84E00E945B2A42E261EC82E053
:104E90000E945B2A42E260EC83E00E945B2A9091D0
:104EA000180381E0943009F080E0609114030E94BF
:104EB000AE25089580911A03833009F463C030F45D
:104EC0008130E1F1823009F4A0C008958A3009F4FC
:104ED0008CC08B3009F471C0893009F052C08091C8
:104EE0001903813209F04DC080911D0390911E037A
:104EF000009719F0029709F044C08091E800877F7D
:104F00008093E8008091E80082FF37C09091F30021
:104F10008091F200029731F48091F100813011F01C
:104F2000863021F48091F1008093F6028091E800B0
:104F30008B778093E8000E948F2A23C08091190309
:104F4000813AF9F48091E800877F8093E8008091AE
:104F50001D0390911E03892B61F460E286ED92E0BF
:104F600070E00E949E298091E8008B778093E80092
:104F7000089560E090E080E0F3CF80911803811104
:104F8000C1CF089580911903813AD9F780911D030B
:104F900090911E03892BA9F78091E800877F809369
:104FA000E8008091E80080FFFCCF80912C01809385
:104FB000F1008091E8008E77BCCF80911903813297
:104FC00001F780911D0390911E03892BD1F68091EA
:104FD000E800877F8093E8000E948F2A80911B035E
:104FE00080932C010E9461070895809119038132FA
:104FF00041F68091E800877F8093E8000E948F2A25
:1050000080911C038093F702089580911903813ADF
:1050100009F0B7CF8091E800877F8093E800809106
:10502000E80080FFFCCF8091F702C1CF84B7877F73
:1050300084BF0FB6F894A895809160008861809332
:105040006000109260000FBE80E890E00FB6F89408
:1050500080936100909361000FBE0E94C725089560
:105060000E94DF2A0E943C2BE2EEF0E08081846007
:10507000808378940E94BB2D089584E291E00E9481
:105080003724089580911803853031F480911803F6
:10509000853019F00E943C2608950E9411268091C7
:1050A0001603882399F30E94D425882379F30E945C
:1050B000EA280E946107EACFA0E2B0E0E2E6F8E267
:1050C0000C947A2E80911803843009F583E0809344
:1050D000E9008091E80082FF1AC08091E80090E02A
:1050E00085FF09C050E040E060E270E0CE0101962B
:1050F0000E944F2991E08091E8008B778093E8002F
:10510000992329F060E2CE0101960E94B51DA09678
:10511000E2E00C94962E9A0140911F0350912003D7
:105120000E9493280895492F55274330510521F1B6
:1051300068F44130510509F443C04230510509F487
:1051400044C090E080E050E040E026C0413251058C
:1051500051F142325105A9F76330710590F7FB0117
:10516000EE0FFF1FEE51FE4F4081518161527E4F85
:10517000FB01808190E010C099278130910581F07A
:10518000009729F00297E9F6EEEAF3E002C0E0EEBC
:10519000F3E0849190E0AF01F901518340830895D9
:1051A000E6ECF3E0F6CF6330710558F6660F771F33
:1051B000FB01E851FE4F4081518189E090E0ECCF46
:1051C00082E190E04FE354E0E7CF8BE590E044EEDE
:1051D00053E0E2CF80E189BD82E189BD09B400FEE0
:1051E000FDCF8091D8008F7D8093D8008091E00022
:1051F00082608093E0008091E00081FDFCCF089503
:10520000AF92BF92CF92DF92FF920F931F93CF93F3
:10521000DF936C01EB018A010E94AE2AF82E811106
:1052200023C00115110539F0F80180819181C81B57
:10523000D90BC80ED91EB12CA12C2097A9F08091B2
:10524000E80085FD22C08091E8008E778093E80019
:1052500001151105A1F0F80180819181A80EB91EF8
:10526000B182A08285E0F82E8F2DDF91CF911F9122
:105270000F91FF90DF90CF90BF90AF9008950E9464
:10528000AE2A8823D1F2F82EEFCFF60181916F017B
:105290008093F1002197FFEFAF1ABF0ACECFAF92F4
:1052A000BF92CF92DF92FF920F931F93CF93DF9322
:1052B0006C01EB018A010E94AE2AF82E811123C0F5
:1052C0000115110539F0F80180819181C81BD90BB6
:1052D000C80ED91EB12CA12C2097A9F08091E8000E
:1052E00085FD22C08091E8008B778093E80001154E
:1052F0001105A1F0F80180819181A80EB91EB1823B
:10530000A08285E0F82E8F2DDF91CF911F910F9114
:10531000FF90DF90CF90BF90AF9008950E94AE2A8B
:105320008823D1F2F82EEFCF8091F100F60181931E
:105330006F012197FFEFAF1ABF0ACECFFC0180911A
:105340001F039091200386179707A0F06115710540
:1053500029F49091E8009E779093E80090E0611521
:10536000710551F4911108C08091E80082FF34C0AA
:1053700080E00895BC01F2CF809118038823C1F129
:105380008530C1F18091E80083FD30C08091E80054
:1053900082FDEACF8091E80080FFE1CF8091F300A9
:1053A0002091F200382F6115710519F02830310570
:1053B00058F091E02830310509F090E02091E800A4
:1053C0002E772093E800CBCF81918093F10061503C
:1053D00071092F5F3F4FE7CF80911803882341F079
:1053E000853041F08091E80083FFBECF81E00895D1
:1053F00082E0089583E00895FC0180911F0390915D
:10540000200386179707A0F06115710529F4809194
:10541000E8008E778093E80090E06115710551F403
:10542000911108C08091E80082FF35C080E00895A6
:10543000BC01F2CF809118038823C9F18530C9F1EE
:105440008091E80083FD31C08091E80082FDEACFC1
:105450008091E80080FFE1CF8091F3002091F2007D
:10546000382F6115710519F02830310558F091E099
:105470002830310509F090E08091E8008E77809324
:10548000E800CBCF84918093F1003196615071098F
:105490002F5F3F4FE6CF80911803882341F085307E
:1054A00041F08091E80083FFBDCF81E0089582E064
:1054B000089583E00895982F973028F08F70809397
:1054C000E90081E008959093E900242F762F50E0C1
:1054D000981731F07091EC002091ED005091F000A0
:1054E00021FD02C09F5FE8CF3091EB003E7F3093FB
:1054F000EB003091ED003D7F3093ED003091EB00FB
:1055000031603093EB007093EC002093ED005093EA
:10551000F0002091EE0027FDE5CF80E00895809116
:10552000190387FF13C08091E80082FF06C08091B5
:10553000E8008B778093E80004C080911803811104
:10554000F2CF0895809118038823D9F38091E80061
:1055500080FFF8CF8091E8008E77ECCF2091E400B7
:105560003091E50095E6A9012091EC00822F817031
:1055700020FF06C08091E80080FF06C080E008950B
:105580002091E80022FD1AC080911803882389F039
:10559000853089F08091EB0085FD0FC02091E400FB
:1055A0003091E50042175307F9F29150E1F684E09B
:1055B000089582E0089583E0089581E008950E94AF
:1055C0004E2B0E94562BE0EEF0E0808181608083BC
:1055D000E8EDF0E080818F77808319BCA7EDB0E023
:1055E0008C918E7F8C9380818F7E808310921703A5
:1055F00008950F931F93CF93DF930E944E2B0E9429
:10560000562BC8EDD0E088818F77888388818068A9
:10561000888388818F7D888319BC1092180310922B
:105620001403109216031092150300EE10E0F80117
:1056300080818B7F808388818160888342E060E005
:1056400080E00E945B2AE1EEF0E080818E7F808323
:10565000E2EEF0E0808181608083808188608083D9
:10566000F80180818E7F8083888180618883DF91CB
:10567000CF911F910F910895E8EDF0E080818F7E2A
:105680008083E7EDF0E080818160808384E082BFE9
:1056900081E0809317030E94F92A0895E8EDF0E075
:1056A00080818E7F80831092E20008951092DA004C
:1056B0001092E10008951F920F920FB60F921124DD
:1056C0002F933F934F935F936F937F938F939F930A
:1056D000AF93BF93EF93FF938091E10082FF0BC0E4
:1056E0008091E20082FF07C08091E1008B7F809370
:1056F000E1000E94BA2D8091DA0080FF19C08091EC
:10570000D80080FF15C08091DA008E7F8093DA0088
:105710008091D90080FF96C080E189BD82E189BD7A
:1057200009B400FEFDCF81E0809318030E94132787
:105730008091E10080FF19C08091E20080FF15C0D8
:105740008091E2008E7F8093E2008091E200806190
:105750008093E2008091D80080628093D80019BCC9
:1057600085E0809318030E9427278091E10084FF41
:105770002BC08091E20084FF27C080E189BD82E1D7
:1057800089BD89B5982F917080FFFBCF8091D8009B
:105790008F7D8093D8008091E1008F7E8093E1001F
:1057A0008091E2008F7E8093E2008091E200816030
:1057B0008093E20080911403882309F449C084E0B7
:1057C000809318030E9430278091E10083FF29C055
:1057D0008091E20083FF25C08091E100877F809364
:1057E000E10082E080931803109214038091E1009D
:1057F0008E7F8093E1008091E2008E7F8093E200B3
:105800008091E20080618093E20042E060E080E00D
:105810000E945B2A8091F00088608093F0000E94D3
:105820002427FF91EF91BF91AF919F918F917F912D
:105830006F915F914F913F912F910F900FBE0F90FD
:105840001F90189519BC109218030E94212770CF41
:105850008091E30087FD93E090931803B3CF1F92EC
:105860000F920FB60F9211242F933F934F935F9394
:105870006F937F938F939F93AF93BF93CF93DF9358
:10588000EF93FF93D091E900DF708091EC00C82F77
:10589000C17080FDC0E81092E9008091F000877F20
:1058A0008093F00078940E94732C1092E90080910C
:1058B000F00088608093F000CD2BCF70C093E9009A
:1058C000FF91EF91DF91CF91BF91AF919F918F9118
:1058D0007F916F915F914F913F912F910F900FBEEC
:1058E0000F901F901895AAE2B0E0E9E7FCE20C9453
:1058F000792E89E193E02091F100FC012193CF0101
:10590000F3E081329F07B9F70E945A278091E8009F
:1059100083FF1EC18091190390911A039A3008F0F9
:1059200017C1E92FF0E0E25DFF4C0C942C2E80387B
:1059300099F0823809F00CC180911D038F70873077
:1059400008F006C18093E9008091EB0085FB882771
:1059500080F91092E90006C080911503909116031A
:10596000911182609091E800977F9093E800809376
:10597000F1001092F1008091E8008E77E5C0882355
:1059800009F4D3C0823009F0E3C080911B03811178
:10599000D6C080911D038F702FEF280F263008F09E
:1059A000D7C08093E9002091EB0020FFC8C093305E
:1059B00031F48091EB0080628093EB00C0C0909145
:1059C000EB0090619093EB0021E030E001C0220FEA
:1059D0008A95EAF72093EA001092EA008091EB00A2
:1059E0008860EACF8111B4C010911B031F778091AA
:1059F000E3008078812B8093E3008091E800877F2B
:105A00008093E8000E948F2A8091E80080FFFCCFFD
:105A10008091E30080688093E30082E0111183E0CD
:105A20008093180395C08058823008F091C080910F
:105A30001B0390911C038C3D23E09207A1F583E0AA
:105A40008A838AE289834FB7F894DE01139620E0B7
:105A50003EE051E2E32FF0E050935700E49120FF45
:105A600003C0E295EF703F5FEF708E2F90E0EA3059
:105A7000C0F0C7968D939D932F5F243159F74FBF88
:105A80008091E800877F8093E8006AE270E0CE01B1
:105A900001960E949E298091E8008B778093E80010
:105AA00057C0C096E7CF60911D0370911E03AE01F1
:105AB0004F5F5F4F0E948B28BC01892B09F448C0BF
:105AC0009091E800977F9093E80089819A810E94E5
:105AD000FC29E1CF8038E1F58091E800877F809351
